{
  "_format": "hh-sol-artifact-1",
  "contractName": "withdrawers",
  "sourceName": "contracts/withdrawers.sol",
  "abi": [
    {
      "inputs": [
        {
          "internalType": "uint256",
          "name": "_unlockedTime",
          "type": "uint256"
        }
      ],
      "stateMutability": "payable",
      "type": "constructor"
    },
    {
      "anonymous": false,
      "inputs": [
        {
          "indexed": false,
          "internalType": "uint256",
          "name": "amount",
          "type": "uint256"
        },
        {
          "indexed": false,
          "internalType": "uint256",
          "name": "time",
          "type": "uint256"
        }
      ],
      "name": "Withdrawals",
      "type": "event"
    },
    {
      "inputs": [],
      "name": "Withdraw",
      "outputs": [],
      "stateMutability": "nonpayable",
      "type": "function"
    },
    {
      "inputs": [],
      "name": "owner",
      "outputs": [
        {
          "internalType": "address payable",
          "name": "",
          "type": "address"
        }
      ],
      "stateMutability": "view",
      "type": "function"
    },
    {
      "inputs": [],
      "name": "unlockedTime",
      "outputs": [
        {
          "internalType": "uint256",
          "name": "",
          "type": "uint256"
        }
      ],
      "stateMutability": "view",
      "type": "function"
    }
  ],
  "bytecode": "0x60806040526040516105b23803806105b2833981810160405281019061002591906100f0565b804210610067576040517f08c379a000000000000000000000000000000000000000000000000000000000815260040161005e9061017a565b60405180910390fd5b8060008190555033600160006101000a81548173ffffffffffffffffffffffffffffffffffffffff021916908373ffffffffffffffffffffffffffffffffffffffff1602179055505061019a565b600080fd5b6000819050919050565b6100cd816100ba565b81146100d857600080fd5b50565b6000815190506100ea816100c4565b92915050565b600060208284031215610106576101056100b5565b5b6000610114848285016100db565b91505092915050565b600082825260208201905092915050565b7f696e636f726563742074696d6520696e70757400000000000000000000000000600082015250565b600061016460138361011d565b915061016f8261012e565b602082019050919050565b6000602082019050818103600083015261019381610157565b9050919050565b610409806101a96000396000f3fe608060405234801561001057600080fd5b50600436106100415760003560e01c80630e5c6f421461004657806357ea89b6146100645780638da5cb5b1461006e575b600080fd5b61004e61008c565b60405161005b919061024a565b60405180910390f35b61006c610092565b005b61007661020b565b60405161008391906102a6565b60405180910390f35b60005481565b6000544210156100d7576040517f08c379a00000000000000000000000000000000000000000000000000000000081526004016100ce9061031e565b60405180910390fd5b600160009054906101000a900473ffffffffffffffffffffffffffffffffffffffff1673ffffffffffffffffffffffffffffffffffffffff163373ffffffffffffffffffffffffffffffffffffffff1614610167576040517f08c379a000000000000000000000000000000000000000000000000000000000815260040161015e9061038a565b60405180910390fd5b600160009054906101000a900473ffffffffffffffffffffffffffffffffffffffff1673ffffffffffffffffffffffffffffffffffffffff166108fc479081150290604051600060405180830381858888f193505050501580156101cf573d6000803e3d6000fd5b507f3709c4e1043fad4f37220b211c86cfea493cccba94a29a3f49cb91c803231b7447426040516102019291906103aa565b60405180910390a1565b600160009054906101000a900473ffffffffffffffffffffffffffffffffffffffff1681565b6000819050919050565b61024481610231565b82525050565b600060208201905061025f600083018461023b565b92915050565b600073ffffffffffffffffffffffffffffffffffffffff82169050919050565b600061029082610265565b9050919050565b6102a081610285565b82525050565b60006020820190506102bb6000830184610297565b92915050565b600082825260208201905092915050565b7f66756e64206973207374696c6c206c6f636b6564000000000000000000000000600082015250565b60006103086014836102c1565b9150610313826102d2565b602082019050919050565b60006020820190508181036000830152610337816102fb565b9050919050565b7f596f7520617265206e6f7420746865206f776e65720000000000000000000000600082015250565b60006103746015836102c1565b915061037f8261033e565b602082019050919050565b600060208201905081810360008301526103a381610367565b9050919050565b60006040820190506103bf600083018561023b565b6103cc602083018461023b565b939250505056fea2646970667358221220bcee60c1e06ab62f2839f87019a263bcf05709c04a17b894a9e5a4dad925f4c064736f6c634300081c0033",
  "linkReferences": {},
  "deployedLinkReferences": {}
}